:100000000C9447050C946F050C946F050C946F05C8
:100010000C946F050C946F050C946F050C94CF1520
:100020000C946F050C946F050C946F050C946F0580
:100030000C946F050C946F050C946F050C946F0570
:100040000C9485150C946F050C946F050C946F053A
:100050000C946F050C946F050C946F050C946F0550
:100060000C942B160C946F0500000000003E5B4FB3
:100070005B3E3E6B4F6B3E1C3E7C3E1C183C7E3C08
:10008000181C577D571C1C5E7F5E1C00183C180016
:10009000FFE7C3E7FF0018241800FFE7DBE7FF30A6
:1000A000483A060E2629792926407F050507407F14
:1000B00005253F5A3CE73C5A7F3E1C1C08081C1C87
:1000C0003E7F14227F22145F5F005F5F06097F017D
:1000D0007F006689956A606060606094A2FFA29468
:1000E00008047E040810207E201008082A1C080836
:1000F0001C2A08081E101010100C1E0C1E0C303884
:100100003E3830060E3E0E06000000000000005F84
:1001100000000007000700147F147F14242A7F2AA0
:100120001223130864623649562050000807030062
:10013000001C2241000041221C002A1C7F1C2A08AE
:10014000083E080800807030000808080808000011
:1001500060600020100804023E5149453E00427F85
:10016000400072494949462141494D331814127FD4
:100170001027454545393C4A494931412111090774
:100180003649494936464949291E000014000000F5
:1001900040340000000814224114141414140041C7
:1001A00022140802015909063E415D594E7C121184
:1001B000127C7F494949363E414141227F414141BC
:1001C0003E7F494949417F090909013E4141517337
:1001D0007F0808087F00417F41002040413F017FA8
:1001E000081422417F404040407F021C027F7F0470
:1001F00008107F3E4141413E7F090909063E4151B9
:10020000215E7F09192946264949493203017F01A8
:10021000033F4040403F1F2040201F3F4038403FA9
:10022000631408146303047804036159494D4300BF
:100230007F4141410204081020004141417F0402F6
:10024000010204404040404000030708002054548D
:1002500078407F284444383844444428384444286B
:100260007F385454541800087E090218A4A49C78BE
:100270007F0804047800447D40002040403D007F1A
:100280001028440000417F40007C047804787C08FA
:100290000404783844444438FC18242418182424CE
:1002A00018FC7C08040408485454542404043F44B3
:1002B000243C4040207C1C2040201C3C4030403CE2
:1002C00044281028444C9090907C4464544C440042
:1002D00008364100000077000000413608000201A6
:1002E0000204023C2623263C1EA1A161123A404092
:1002F000207A38545455592155557941225454780F
:1003000042215554784020545579400C1E527212A7
:100310003955555559395454545939555454580030
:1003200000457C410002457D420001457C407D1234
:1003300011127DF0282528F07C5455450020545496
:100340007C547C0A097F4932494949323A44444441
:100350003A324A4848303A4141217A3A424020787C
:10036000009DA0A07D3D4242423D3D4040403D3C7D
:1003700024FF2424487E4943662B2FFC2F2BFF09A2
:1003800029F620C0887E0903205454794100004496
:100390007D413048484A32384040227A007A0A0A81
:1003A000727D0D19317D2629292F282629292926F4
:1003B00030484D4020380808080808080808382F39
:1003C00010C8ACBA2F102834FA00007B00000814C3
:1003D0002A142222142A14085500550055AA55AA99
:1003E00055AAFF55FF55FF000000FF00101010FF39
:1003F00000141414FF001010FF00FF1010F010F094
:10040000141414FC001414F700FF0000FF00FF1484
:1004100014F404FC141417101F10101F101F1414D0
:10042000141F00101010F0000000001F101010101A
:100430001F10101010F010000000FF10101010100E
:1004400010101010FF10000000FF140000FF00FF4C
:1004500000001F10170000FC04F4141417101714E8
:1004600014F404F40000FF00F7141414141414140A
:10047000F700F7141414171410101F101F1414147D
:10048000F4141010F010F000001F101F0000001FE7
:1004900014000000FC140000F010F01010FF10FF1A
:1004A000141414FF141010101F00000000F010FFAF
:1004B000FFFFFFFFF0F0F0F0F0FFFFFF0000000093
:1004C00000FFFF0F0F0F0F0F3844443844FC4A4A17
:1004D0004A347E02020606027E027E0263554941CC
:1004E000633844443C04407E201E2006027E020203
:1004F00099A5E7A5991C2A492A1C4C7201724C3017
:100500004A4D4D303048784830BC625A463D3E49ED
:100510004949007E0101017E2A2A2A2A2A44445F91
:10052000444440514A444040444A51400000FF0185
:1005300003E080FF000008086B6B08361236243693
:10054000060F090F060000181800000010100030F8
:1005500040FF0101001F01011E00191D1712003C80
:100560003C3C3C0000000000000103070F1F3F7FE0
:100570000080C0E0F0F8FCFE02DB40A4A62EAF2015
:1005800000A1C8D300408DAED580A8000060000057
:10059000000000000000000000000000E00000007B
:1005A0000000000000000000000001E0000000006A
:1005B00000000000000000000001F000000000004A
:1005C000000000000000000003F000000000000038
:1005D0000000000000000007F00000000000000024
:1005E00000000000000007F800000000000000000C
:1005F00000000000000FF800000003C0007E0000B3
:1006000001E0007F0FF800000003C000FE000001C1
:10061000E000FFEFF800000003C000FE000001E072
:1006200000FFFFF800000003C000F00000000F0012
:100630007FFE7FC0000003C000F00000000F003FFD
:10064000FE7FF83FF1FBCFFCFEF3BC3DEFE01FFE69
:100650007FFF7FFBFFDFFEFEFFBC3DEFE01FC6FF1D
:10066000FF7FFBFFDFFEFEFFBC3DEFE00FE3C7FEB9
:10067000787BC3DE1EF0FFBC3DEF0007FF87FC78F0
:100680007BC3DE1EF0F83C3DEF0001FFFFF0007B76
:10069000C3C01EF0F03C3DEF0001F37FE03FFBC321
:1006A000CFFEF0F03C3DEF0003E33F807FFBC3DF74
:1006B000FEF0F03C3DEF0007E73C00787BC3DE1E18
:1006C000F0F03C3DEF0007FFBE00787BC3DE1EF07C
:1006D000F03C3DEF0007FFFE00787BC3DE1EF0F02C
:1006E0003C3DEF000FFFFE007FFBFFDFFEF0F03F21
:1006F000FDEFE00FFFFF007FFBFFDFFEF0F03FFDAF
:10070000EFE00FF9FF003E79F9CF9EF0F01F3DE7D3
:10071000E01FF1FF000000000000000000000000EA
:100720001F80FF007FFFFFFFFFFFFFFFFFFFE01CB9
:10073000007F007FFFFFFFFEB46D888D18E0000092
:100740001F007FFFFFFFFE95AD7DB577E000000F36
:10075000007FFFFFFFFEA5AD9D8D19E000000600A4
:100760007FFFFFFFFEB5ADEDB57EE00000000000AD
:100770000180000000000000000000038000000075
:1007800000000000000007C00000000000000000A2
:100790000007C00000000000000000000FC00000C3
:1007A000000000000000001FE0000000000000004A
:1007B00000001FE00000000000000000003FE0001B
:1007C00000000000000000003FF0000000000000FA
:1007D0000000007FF0000000000000001FF87FF024
:1007E000000000000000003FFE7FF000000000005D
:1007F00000003FFF7FF0000000000000001FFFFB33
:10080000E0000000000000000FFFF9FFC000000042
:100810000000000FFFF9FFF800000000000007FFD4
:10082000F1FFFF00000000000003FC73FFFF8000E9
:100830000000000001FE3FFFFF80000000000000FC
:10084000FF1E0FFF000000000000007FFE1FFC00E5
:100850000000000000003FFFFFF800000000000063
:10086000000FDFFFE0000000000000001F19FFC0C4
:10087000000000000000003F3CFF000000000000FE
:1008800000007E7CF800000000000000007FFE7C7D
:100890000000000000000000FFFFFC00000000005E
:1008A000000000FFFFFE0000000000000000FFFF4E
:1008B000FE0000000000000001FFEFFE000000004D
:1008C00000000001FFCFFE0000000000000003FF59
:1008D00007FE0000000000000003FC07FE0000000F
:1008E0000000000003F003FE000000000000000113
:1008F0008000FE000000000000000000007E0000FC
:1009000000000000000000003E00000000000000A9
:100910000000000C000000000000078000FC000048
:1009200003C0000000078001FC000003C0000000BD
:10093000078001FC000003C0000000078001E00008
:1009400000001E000000078001E00000001E007F84
:10095000E3F79FF9FDE7787BDFC0FFF7FFBFFDFD01
:10096000FF787BDFC0FFF7FFBFFDFDFF787BDFC0B7
:10097000F0F787BC3DE1FF787BDE00F0F787BC3DF8
:10098000E1F0787BDE0000F787803DE1E0787BDEF8
:10099000007FF7879FFDE1E0787BDE00FFF787BFF0
:1009A000FDE1E0787BDE00F0F787BC3DE1E0787B9D
:1009B000DE00F0F787BC3DE1E0787BDE00F0F787F2
:1009C000BC3DE1E0787BDE00FFF7FFBFFDE1E07FAB
:1009D000FBDFC0FFF7FFBFFDE1E07FFBDFC07CF383
:1009E000F39F3DE1E03E7BCFC0000000000000002F
:1009F00000000000FFFFFFFFFFFFFFFFFFFFC0FF42
:100A0000FFFFFFFD68DB111A31C0FFFFFFFFFD2B69
:100A10005AFB6AEFC0FFFFFFFFFD4B5B3B1A33C081
:100A2000FFFFFFFFFD6B5BDB6AFDC00000000024E1
:100A30000027002A0000000000250028002B0000ED
:100A40000000002300260029000404040404040418
:100A5000040202020202020303030303030102046D
:100A60000810204080010204081020010204081030
:100A7000200000000800020100000304070000003D
:100A800000000000002200FF21004A177F1C1124F3
:100A90001FBECFEFD8E0DEBFCDBF11E0A0E0B1E0D8
:100AA000E8E3FCE302C005900D92A03CB107D9F742
:100AB00022E0A0ECB1E001C01D92A93EB207E1F72F
:100AC00015E0C6E4D5E004C02197FE010E94D81CC1
:100AD000C534D107C9F70E94A5170C940F1E0C94BA
:100AE00000000895833081F028F4813099F082303D
:100AF000A9F008958730A9F08830C9F08430B1F4A6
:100B0000809180008F7D03C0809180008F778093DB
:100B10008000089584B58F7784BD089584B58F7D56
:100B2000FBCF8091B0008F778093B00008958091C3
:100B3000B0008F7DF9CFCF93DF93282F30E0F901FC
:100B4000EF58F54F8491F901E35AF54FD491F9012B
:100B5000E75BF54FC491CC23A1F081110E9472058F
:100B6000EC2FF0E0EE0FFF1FE15CF54FA591B49183
:100B7000EC91ED2381E090E009F480E0DF91CF91EA
:100B8000089580E090E0FACF1F93CF93DF93282F52
:100B900030E0F901EF58F54F8491F901E35AF54F30
:100BA000D491F901E75BF54FC491CC23A9F0162F3E
:100BB00081110E947205EC2FF0E0EE0FFF1FEB5C3D
:100BC000F54FA591B4918FB7F894EC91111108C02D
:100BD000D095DE23DC938FBFDF91CF911F910895D5
:100BE000DE2BF8CFCF93DF9390E0FC01E35AF54F73
:100BF0002491875B954FFC0184918823D1F090E08C
:100C0000880F991FFC01E55DF54FA591B491FC019A
:100C1000EB5CF54FC591D491623071F49FB7F894B5
:100C20003C91822F809583238C93E8812E2B2883FF
:100C30009FBFDF91CF9108958FB7F894EC912E2B41
:100C40002C938FBFF6CF3FB7F8948091910290918B
:100C50009202A0919302B091940226B5A89B05C080
:100C60002F3F19F00196A11DB11D3FBFBA2FA92F2B
:100C7000982F8827BC01CD01620F711D811D911D28
:100C800042E0660F771F881F991F4A95D1F7089594
:100C90008F929F92AF92BF92CF92DF92EF92FF928C
:100CA0004B015C010E9423066B017C010E9423061C
:100CB0006C197D098E099F09683E73408105910575
:100CC000A8F321E0821A9108A108B10888EEC80EA5
:100CD00083E0D81EE11CF11C81149104A104B1042D
:100CE00029F7FF90EF90DF90CF90BF90AF909F904B
:100CF0008F900895089508959091000189130BC075
:100D0000E8E7F5E0E4919FEF90930001E13049F0CE
:100D100028F0E23061F060E00C94C40510926E009F
:100D2000FACF90916F009D7F90936F00F4CF9091D8
:100D300070009D7F9093700091E09093B00090912F
:100D4000B100987F94609093B1001092B300E3CF0C
:100D5000AF92BF92CF92DF92EF92FF920F931F93C9
:100D6000CF93DF936C017B018B01040F151FEB0107
:100D70005E01AE18BF08C017D10759F06991D601BE
:100D8000ED91FC910190F081E02DC6010995892B30
:100D900079F7C501DF91CF911F910F91FF90EF90EF
:100DA000DF90CF90BF90AF900895EF92FF920F9396
:100DB0001F93CF93DF93EC01EC80FD806E157F05D0
:100DC0000CF070C057FF04C0240F351F50E040E006
:100DD0008E819F81FA01E20FF31F8E179F071CF48B
:100DE0009C01241B350B121613060CF05BC0922FCE
:100DF000842F8695869586958E9DD0018F9DB00D0A
:100E000011246A0F7B1FAF8DB8A1A60FB71F4770C3
:100E100049F188E0841B482F682F70E0FB01E059FE
:100E2000FA4FE491281708F063C0621B71092FEF95
:100E300030E002C0359527956A95E2F7E22301304C
:100E4000110539F0B0F10230110561F58C91E827F8
:100E500002C08C91E82BEC93941720F12C813D81FA
:100E6000A20FB31FE92FE41BE83078F00230110520
:100E700021F58E2F9C9190959C932C813D81A20F02
:100E8000B31F88508830B0F7E770EE2359F0F0E0D8
:100E9000E859FA4FE49101301105F9F010F10230F0
:100EA000110519F1DF91CF911F910F91FF90EF90F4
:100EB0000895E0958C91E823CECF81E001151105CE
:100EC00009F480E081959E2F8C932C813D81A20FA7
:100ED000B31F98509830C0F7D7CF8C91E82BEC9384
:100EE000E1CFE0958C91E823FACF8C91E827F7CFFA
:100EF0000130110509F4ADCFE0F20230110509F41B
:100F0000A5CFAE0DBF1DAECF0F931F93CF93DF9331
:100F100077FF04C0260F371F70E060E0DC011496F5
:100F2000CD91DC91FB01E20FF31FCE17DF071CF41C
:100F30009E01261B370B121613064CF5FA0157FDBE
:100F40003796A3E0F595E795AA95E1F7EC9FD001D8
:100F5000ED9FB00DFC9FB00D11246A0F7B1FDC01CB
:100F60005F96ED91FC91E60FF71F4770552781E0E2
:100F700090E001C0880F4A95EAF7482F013011052B
:100F800059F0A8F02E0F3F1F02301105E1F0DF915C
:100F9000CF911F910F9108952E0F3F1FE217F30776
:100FA000B1F38191DF011197842B8C93F7CF80955A
:100FB0002E0F3F1FE217F30751F39191DF011197B5
:100FC00098239C93F7CFE217F30709F38191DF0190
:100FD000119784278C93F7CF0F931F93FA01DC01AD
:100FE00056964C9156974230E9F04330A1F141308A
:100FF00061F514964D915C91DA01AE1BBF0BFD01BA
:10100000E21BF30B77FD0BC0DC0116964D915C9152
:101010006417750724F4AB01BF010E9484071F9178
:101020000F91089514964D915C91DA01A61BB70BB0
:10103000BD0161507109DC0116964D915C91DA0198
:10104000AE1BBF0BFD01E21BF30B77FDE8CFAF0139
:101050000E94D506E4CF16964D915C91DA01A61B4D
:10106000B70BBD0161507109CDCF0F931F93FA01EA
:10107000DC0156964C9156974230A9F0433091F1DD
:10108000413019F514964D915C91DA01AE1BBF0BFE
:10109000FD013197F7FD04C0AB01BF010E94D506E9
:1010A0001F910F91089514964D915C91DA01A61B42
:1010B000B70BBD01DC0116964D915C91DA01AE1BB8
:1010C000BF0BFD013197621B730BF7FDE9CFDC010C
:1010D00016964D915C91E417F50714F7AF010E9445
:1010E0008407DECF16964D915C91DA01A61BB70BF3
:1010F000BD01621B730BCECFFC0177FD64C0808500
:101100009185681779070CF05EC057FD5CC0828539
:101110009385481759070CF056C086898230B1F084
:10112000833029F1813041F484819581841B950BB2
:10113000AB01BC01615071092130310509F108F49E
:1011400043C02230310509F463C00895848195813C
:10115000DC01A61BB70BBD01615071098681978127
:10116000DC01A41BB50BAD0141505109E5CF8681CF
:101170009781861B970BBA01AC0141505109DCCF16
:10118000CA0157FD0796A3E095958795AA95E1F7C3
:10119000A481B5818A9F90018B9F300D9A9F300D5D
:1011A0001124620F731F078CF0A1E02DE60FF71FCB
:1011B0004770552721E030E001C0220F4A95EAF739
:1011C0008081822B80830895CA0157FD079633E002
:1011D000959587953A95E1F7A481B5818A9F90010D
:1011E0008B9F300D9A9F300D1124620F731F078C57
:1011F000F0A1E02DE60FF71F4770552781E090E042
:1012000001C0880F4A95EAF7809590818923DACF4B
:10121000CA0157FD079623E0959587952A95E1F732
:10122000A481B5818A9F90018B9F300D9A9F300DCC
:101230001124620F731F078CF0A1E02DE60FF71F3A
:101240004770552721E030E001C0220F4A95EAF7A8
:1012500080818227B7CF08958EBD00000DB407FEB0
:10126000FDCF8EB508958CBD9DBD08950895FC01F8
:101270006370668B8481958126813781613039F076
:10128000633029F0918780873387228708953187DB
:1012900020879387828708952F923F924F925F9283
:1012A0006F927F928F929F92AF92BF92CF92DF9276
:1012B000EF92FF920F931F93CF93DF93CDB7DEB7DB
:1012C0006A970FB6F894DEBF0FBECDBF9A8F898F95
:1012D0007A8369834A01D22E18870F833701BC2C89
:1012E000DC0159962D913C915A972115310509F051
:1012F00015C118968D919C911997681779070CF074
:10130000D7C11A968D919C91481759070CF0D0C1FE
:101310004C2C512CB6E0CB9E600D711D11247C87A6
:101320006B87161617060CF0C3C1EA2DF0E0FA879A
:10133000E98793E0EE0FFF1F9A95E1F7F88BEF87AF
:10134000CF01840F951F181619060CF0B1C1A98D95
:10135000BA8D58968C91811104C0BFEABD1508F46E
:10136000D394A98DBA8DED91FC9111970284F385E8
:10137000E02DCD010995B5E0DB9EC0011124E98186
:10138000FA81FC83EB83312C212C9C0128593F4F9F
:10139000388F2F8B4A2D50E05E8B4D8BEF89F88D67
:1013A000E20DF31D44919E828D82D12CC12C698166
:1013B0007A81620D731D7A8B698B842F90E09C8BF0
:1013C0008B8BE98DFA8DA081B18140FF82C0F1E065
:1013D000BF126FC0AF126DC01C96ED91FC912F81B2
:1013E0003885A4014C0D5D1D69897A89898D9A8D96
:1013F0000995EB89FC89F595E7954E2F5FEFC51AA6
:10140000D50A6D817E818D899E89680F791F7E83C3
:101410006D8398E0C916D10481F6AFEF2A1A3A0A13
:10142000EB81FC81E40DF51DFC83EB83F5E02F16C9
:10143000310409F0B3CF2F81388526153705B9F06F
:10144000A98DBA8DED91FC91B1E0BB1257C0AB12E2
:1014500055C069817A816B5F7F4F0088F189E02DEB
:10146000830128E030E0A401898D9A8D0995A98D2A
:10147000BA8DED91FC9111970688F789E02DCD0189
:101480006A960FB6F894DEBF0FBECDBFDF91CF9145
:101490001F910F91FF90EF90DF90CF90BF90AF9092
:1014A0009F908F907F906F905F904F903F902F9084
:1014B00009941E96ED91FC91EF80F88409851A85B8
:1014C00092014D815E816B817C81898D9A8D099518
:1014D00090CF2F8138852615370509F48ACF31E062
:1014E000B31207C0A31205C01C96ED91FC919301A5
:1014F00078CF1E96ED91FC917301E0CF6B857C85D2
:10150000641975090684F785E02D73010F85188924
:101510009201A401898D9A8D0995A9CFF90134967C
:101520009491329745915491D91AB7E0DB9E400DC2
:10153000511D1124F901259134913C8B2B8BFA011B
:1015400025903490FA013296749031963491398B0B
:10155000329664903196449041E04C1518F04A154B
:1015600008F07FC0662D062C000C770B7C836B8304
:10157000842D042C000C990B9E838D83A98DBA8D2C
:10158000ED91FC9111970284F385E02DCD01099531
:10159000512CD12CC12CEA2DF0E0FA87E9872B2DB4
:1015A00030E03C872B87A401440D511D47FC5A9520
:1015B000588F4F8B69817A81660D711D67FC7A9512
:1015C0007E876D877989C71608F051CF2C2D30E0C2
:1015D0004D815E81420F531FA985BA854A9FC00184
:1015E0004B9F900D5A9F900D1124FC01E80DF91DA1
:1015F000F88BEF87852D612C4F89588D420F531F33
:101600005E8B4D8B671408F050C044244394480E01
:10161000877041F4C1010196EB89FC89E20DF31D4D
:10162000D4901C01D7FE19C0A98DBA8DED91FC9103
:10163000662D70E0B1E0BB1219C0AB1217C02D854A
:101640003E85620F731F0484F585E02D2F81388558
:101650004D895E89898D9A8D0995DD0C6394842D61
:10166000D1CF1E821D821C821B8288CF4B815C8160
:10167000640F751FAB85BC856A9FC0016B9F900D81
:101680007A9F900D112469817A81680F791F0684F1
:10169000F785E02DEF80F88409851A859D014F8537
:1016A0005889898D9A8D0995D8CF570CC3948ACFC4
:1016B0006A960FB6F894DEBF0FBECDBFDF91CF9113
:1016C0001F910F91FF90EF90DF90CF90BF90AF9060
:1016D0009F908F907F906F905F904F903F902F9052
:1016E00008958F929F92AF92CF92EF92FF920F93B5
:1016F0001F93CF93DF93EC01262F898D9A8D00974E
:1017000009F051C06A30D1F41D861C868D8948E0ED
:10171000849F900111248E859F85820F931F9F8740
:101720008E8781E090E0DF91CF911F910F91FF9024
:10173000EF90CF90AF909F908F9008956D3089F388
:10174000CC88AD888F898823C1F08C859D8536E053
:10175000C39E800D911D112448855985481759074E
:1017600064F44E855F851D861C8638E0A39EC0010B
:101770001124840F951F9F878E87EA88FB8808892C
:1017800019894E855F856C857D85CE010E944C0947
:101790002C898C859D8546E0249F800D911D112408
:1017A0009D878C87BECF6A3069F41D861C86FC013C
:1017B0003896E4912D898E859F85E29F800D911D3D
:1017C0001124ADCF6D3009F4ACCFFC0134963491C7
:1017D000631708F4A6CF3296E491E61708F4A1CF78
:1017E000FC01329685909490462F431B342F47E09E
:1017F000349F800C911C1124F4013296349131965F
:10180000E4913323A9F1EE2399F1CC88F4013596C4
:10181000E491AD884F89442301F10E2E000CFF0B9B
:10182000E30FF11DCE9EA001CF9E500D11246C85BB
:101830007D85460F571F68857985641775076CF499
:101840004E855F851D861C86FC013896E491AE9E10
:10185000400D511D11245F874E87EA88FB88088957
:1018600019894E855F856C857D85CE010E944C0966
:10187000F4013496E4912C898C859D85E29F800D3E
:10188000911D11248DCF6F927F928F929F92AF9274
:10189000BF92CF92DF92EF92FF920F931F93CF935D
:1018A000DF93EC016B015A0139014801E881F981AC
:1018B0000284F385E02D0995E881F9810288F38996
:1018C000E02D87019301A501B601CE010995A5017F
:1018D000480D591D41505109E881F9810288F38969
:1018E000E02D9301B601CE010995E881F9810088C8
:1018F000F189E02D9401A501B601CE010995C60C30
:10190000D71CB60161507109E881F9810088F1891D
:10191000E02D9401A501CE010995E881F9810688A1
:10192000F789E02DCE01DF91CF911F910F91FF90AC
:10193000EF90DF90CF90BF90AF909F908F907F906F
:101940006F9009946F927F928F929F92AF92BF9205
:10195000CF92DF92EF92FF920F931F93CF93DF937B
:101960005C01EB016A01490138018701DC01ED915D
:10197000FC916217730719F5641675062CF0962D05
:10198000872D3A01C92ED82E9601261937092F5FC7
:101990003F4F048CF58DE02DA301BE01C5010995D3
:1019A000DF91CF911F910F91FF90EF90DF90CF903B
:1019B000BF90AF909F908F907F906F900895461545
:1019C000570591F42617370724F0892D4B01C22FB4
:1019D000D82F9E01281939092F5F3F4F068CF78DAC
:1019E000E02DA601B401DACF0284F385E02D09953C
:1019F000D501ED91FC910488F589E02D83019401D6
:101A0000A601BE01C5010995D501ED91FC9106889D
:101A1000F789E02DC501DF91CF911F910F91FF90C4
:101A2000EF90DF90CF90BF90AF909F908F907F907E
:101A30006F900994EF92FF920F931F93DC011A9617
:101A40000D911C911B9718962D913C911997ED9132
:101A5000FC9100A0F1A1E02D7B0150E040E070E09E
:101A600060E009951F910F91FF90EF9008954F92BC
:101A70005F926F927F928F929F92AF92BF92CF921E
:101A8000DF92EF92FF920F931F93CF93DF936C013E
:101A90002B015A0139014801DC01ED91FC910284CE
:101AA000F385E02D0995E201640C751CD601ED91DA
:101AB000FC91C615D7055CF40088F189E02D8701FB
:101AC0009401A501BE01C60109952196EFCF0688B4
:101AD000F789E02DC601DF91CF911F910F91FF9003
:101AE000EF90DF90CF90BF90AF909F908F907F90BE
:101AF0006F905F904F9009948F929F92AF92BF9298
:101B0000CF92DF92EF92FF920F931F93CF93DF93C9
:101B1000EC015B014A016901E881F9810284F385E6
:101B2000E02D099595012C0D3D1D21503109E881CD
:101B3000F9810488F589E02D78018401A401B501BB
:101B4000CE010995E881F9810688F789E02DCE015B
:101B5000DF91CF911F910F91FF90EF90DF90CF9089
:101B6000BF90AF909F908F9009948F929F92AF9269
:101B7000BF92CF92DF92EF92FF920F931F93CF937A
:101B8000DF93EC015B014A0169017801E881F98189
:101B90000284F385E02D0995C80CD91C86010150FB
:101BA0001109E881F9810488F589E02D9501A401E6
:101BB000B501CE010995E881F9810688F789E02D04
:101BC000CE01DF91CF911F910F91FF90EF90DF90A9
:101BD000CF90BF90AF909F908F900994EF92FF921B
:101BE0000F931F93DC01ED91FC9100A0F1A1E02D7A
:101BF00009951F910F91FF90EF9008950F931F93F8
:101C0000DC01ED91FC91068CF78DE02D09951F917B
:101C10000F9108950F931F93DC01ED91FC91048CBB
:101C2000F58DE02D09951F910F910895DC01ED913F
:101C3000FC910084F185E02D09943F924F925F92D0
:101C40006F927F928F929F92AF92BF92CF92DF92CC
:101C5000EF92FF920F931F93CF93DF935C017B0171
:101C60004A016901390187E0680E711C93E075949F
:101C700067949A95E1F72B01400E511E10E000E0A9
:101C8000312CD0E0C0E0CE0187709927330C892B2E
:101C900059F4FE0183E0F595E7958A95E1F7E00FA9
:101CA000F11FE80DF91D349037FE0AC021E030E045
:101CB000A701B5016C0F7D1F85EA92E00E94160E08
:101CC0002196CC16DD06F9F68FEFE81AF80A060D14
:101CD000171DE414F504A9F6DF91CF911F910F9120
:101CE000FF90EF90DF90CF90BF90AF909F908F903C
:101CF0007F906F905F904F903F9008952F923F920A
:101D00004F925F926F927F928F929F92AF92BF920B
:101D1000CF92DF92EF92FF920F931F93CF93DF93B7
:101D200000D000D000D0CDB7DEB73C016A013E83C1
:101D30002D83FC82EB825801A41AB50AB7FE03C0BA
:101D4000B194A194B1088D809E80861A970A97FE5F
:101D500003C09194819491088A149B045CF0902FA5
:101D6000812F0D811E819D838E839C2D8D2D6B0176
:101D7000692F782F0C151D055CF09D818E817E8367
:101D80006D83692F782F902F812F8601C92ED82E31
:101D90001601201A310A2B012D813E81421A530A65
:101DA00057FE03C0519441945108710137FE03C09E
:101DB0003FEFE31AF30AF594E7948D819E8186172D
:101DC00097075CF5A1E0B0E0BA83A983C016D106FD
:101DD0004CF1D301ED91FC910484F585E02D2B812C
:101DE0003C81A8016D817E818A149B041CF04D8189
:101DF0005E81B801C3010995E418F508F7FE0AC031
:101E00002D813E8189819A81280F391F3E832D8340
:101E1000E20CF31C0F5F1F4FD9CF2FEF3FEF3A8338
:101E20002983D4CF26960FB6F894DEBF0FBECDBF60
:101E3000DF91CF911F910F91FF90EF90DF90CF90A6
:101E4000BF90AF909F908F907F906F905F904F90DA
:101E50003F902F900895089520913002260F332748
:101E6000331F21323105ECF420915402FC0190E043
:101E700080E0243069F082E00895A0913002219141
:101E8000AC01405F5D4FA40FB52FB11D2C9301969F
:101E9000861798F380913002680F6093300280E0DB
:101EA000089581E008951092540281E080935602D3
:101EB0001092550261E082E10E94C40561E083E175
:101EC0000E94C405E9EBF0E080818E7F80838081F1
:101ED0008D7F808388E48093B80085E48093BC0084
:101EE0000895CF93DF9391E090930F028823B9F088
:101EF000C091B800D091BA008091BC008A7B8093D9
:101F0000BC0060E082E10E94C40560E083E10E94C1
:101F1000C4050E94530FD093BA00C093B800DF915C
:101F2000CF910895E091870280918602E81730F4FE
:101F3000F0E0E651FE4F808190E008958FEF9FEF33
:101F4000089590918702809186022FEF3FEF9817B6
:101F500048F4E92FF0E0E651FE4F208130E09F5F2A
:101F600090938702C901089580918602909187021B
:101F7000891B990B0895CF92DF92EF92FF920F93F6
:101F80001F93CF93DF937C01CB018A0120919802AC
:101F9000222389F0EB016B01C40ED51ECC15DD05A3
:101FA00069F06991D701ED91FC910190F081E02DEC
:101FB000C7010995F3CF642F0E942C0FC801DF9150
:101FC000CF911F910F91FF90EF90DF90CF900895E8
:101FD000CF93DF931F92CDB7DEB76983209198022C
:101FE0002223F9F020919502203258F021E030E0D0
:101FF000FC013383228390E080E00F90DF91CF914A
:10200000089580919602E82FF0E0E653FE4F998103
:1020100090838F5F809396028093950281E090E099
:10202000ECCF61E0CE0101960E942C0FF7CFCF924A
:10203000DF92EF92FF920F931F93CF93DF93D09194
:10204000950281E0D13208F09CC0C09197020E94B5
:1020500023066B017C018091540281116CC082E0E7
:102060008093540281E0809356028FEF8093530255
:1020700010927802D0937702AAECB1E0E7E5F2E0A3
:1020800080E0D8138DC01092790280917902CC0F34
:10209000C82BC093790280915502813009F084C029
:1020A000109255020E9423066B017C0180917902F7
:1020B0008093BB0080910B0290910C02A0910D02C5
:1020C000B0910E02892B8A2B8B2BA1F00E94230644
:1020D00000910B0210910C0220910D0230910E0222
:1020E0006C197D098E099F090617170728073907FC
:1020F00008F442C08091BC0083FDD8CF85EC80936A
:10210000BC000E9423066B017C0180915402823046
:1021100009F44CC0809153028F3F09F469C080914B
:102120005302803209F466C080915302803309F46F
:1021300063C084E026C080910B0290910C02A091B4
:102140000D02B0910E02892B8A2B8B2B09F483CFC1
:102150000E94230600910B0210910C0220910D02A7
:1021600030910E026C197D098E099F090617170719
:102170002807390708F06FCF80910A020E94710F7B
:1021800085E0109296021092950210929802DF91CB
:10219000CF911F910F91FF90EF90DF90CF90089516
:1021A0009D9191938F5F6DCF85EEA9CF80910B02AA
:1021B00090910C02A0910D02B0910E02892B8A2BF6
:1021C0008B2B09F4A2CF0E94230600910B021091E1
:1021D0000C0220910D0230910E026C197D098E09BE
:1021E0009F09061717072807390708F08ECFC4CFB5
:1021F00080E0C7CF82E0C5CF83E0C3CFEF92FF92EC
:102200000F931F93CF93DF937C01C62F8091C2025F
:102210009091C302009709F459C02091C60231E0A1
:102220003093980220939702109296021092950292
:10223000DC01ED91FC910190F081E02D60E00995C9
:102240008701EE24E394F12CD1E0C1508091C202C9
:102250009091C302CF3F91F1B0E2EB16F104D8F0B8
:102260000E9417108091C2029091C3022091C60271
:10227000D0939802209397021092960210929502A2
:10228000DC01ED91FC910190F081E02D60E0099579
:10229000EE24E394F12C8091C2029091C302F801E4
:1022A0006491DC01ED91FC910190F081E02D0995A4
:1022B000BFEFEB1AFB0A0F5F1F4FC7CFDF91CF9124
:1022C0001F910F91FF90EF900C941710E091D202A4
:1022D000F091D30290818091D802809589238083E8
:1022E0008701C15008F438C0F80184912091C002E0
:1022F0003091C102232B29F00E942C090F5F1F4F40
:10230000F0CF28E030E040E8E091CE02F091CF023B
:102310009091D602582F5423D9F05081952B908359
:10232000E091D002F091D10290815091D702952B8B
:102330009083E091D002F091D10250819091D70228
:10234000909595239083469521503109E9F6D6CF93
:10235000508190959523E3CFDF91CF911F910F91FD
:10236000FF90EF9008951F93CF93DF93EC018D8D35
:102370009E8D009721F1162F29A131E0309398020C
:10238000209397021092960210929502DC01ED9133
:10239000FC910190F081E02D60E009958D8D9E8D7E
:1023A000DC01ED91FC910190F081E02D612F099508
:1023B0008D8D9E8DDF91CF911F910C941710ADA53F
:1023C000BEA59C918BA9809589238C938B8D9C8D28
:1023D000892B31F0862FDF91CF911F910C942C091E
:1023E00028E030E080E8A9A5BAA599A9462F48239E
:1023F000C1F04C91942B9C93ABA5BCA59C914AA990
:10240000942B9C93ABA5BCA54C919AA99095942331
:102410009C9386952150310931F7DF91CF911F911F
:1024200008954C9190959423E6CFDF92EF92FF921E
:102430000F931F93CF93DF938091C2029091C302B9
:10244000892B09F498C02091DA023091DB02409187
:10245000DC025091DD0260E074E284EF90E00E94C3
:10246000A21C2051310941095109569547953795CC
:1024700027952093B80065E085E89AE00E94FE1059
:102480006091A902615085EA92E00E94B311209107
:10249000AB023091AC02C901079697FD079633E075
:1024A000959587953A95E1F72091A9023091AA0276
:1024B000829F8001839F100D929F100D1124C09167
:1024C000C402D091C5028091C2029091C3020C0F48
:1024D0001D1F009709F48FC02091C60231E0309390
:1024E0009802209397021092960210929502DC01B6
:1024F000ED91FC910190F081E02D60E40995EE24CE
:10250000E394F12CDD24D3948091C2029091C30214
:102510000C171D0709F446C0B0E2EB16F104D8F021
:102520000E9417108091C2029091C3022091C602AE
:10253000D0929802209397021092960210929502E0
:10254000DC01ED91FC910190F081E02D60E40995B2
:10255000EE24E394F12C8091C2029091C302699120
:10256000DC01ED91FC910190F081E02D0995BFEF28
:10257000EB1AFB0AC9CF8091C0029091C102892B4E
:1025800031F08091E3029091E4020E943309E091DE
:10259000D402F091D50290818091D902809589234F
:1025A000808369CF0E9417108091C2029091C3026C
:1025B000892B09F461C02091DE023091DF02409145
:1025C000E0025091E10260E074E284EF90E00E944A
:1025D000A21C20513109410951095695479537955B
:1025E00027952093B800DF91CF911F910F91FF9015
:1025F000EF90DF900895E091D202F091D3028081B4
:102600009091D802892B80830C171D0769F289915C
:102610002091C0023091C102232B19F00E942C0995
:10262000F3CF28E030E040E8E091CE02F091CF0215
:102630009091D602582F5423D9F05081952B908336
:10264000E091D002F091D10290815091D702952B68
:102650009083E091D002F091D10250819091D70205
:10266000909595239083469521503109E9F6CCCF7A
:10267000508190959523E3CFE091D402F091D5025B
:1026800080819091D902892B8083ADCF1F93CF9306
:10269000DF93EC01162F8D8D9E8D892BB1F12DA925
:1026A0003EA94FA958AD60E074E284EF90E00E942B
:1026B000A21C20513109410951095695479537957A
:1026C00027952093B80066EA111167EACE010E94AF
:1026D000B3118D8D9E8D892B41F129AD3AAD4BAD56
:1026E0005CAD60E074E284EF90E00E94A21C205197
:1026F00031094109510956954795379527952093FA
:10270000B800DF91CF911F9108958B8D9C8D892BFF
:1027100021F08EAD9FAD0E943309EFA5F8A99081FD
:102720008CA9809589238083CECFEFA5F8A98081DD
:102730009CA9892B8083E5CF90E080E00895CF931A
:1027400080910001863061F08F3FA1F166E970E071
:1027500080E090E00E94480686E0CF910C947C06D1
:10276000E8E7F5E0C491C7FDF1CF61E086E00E94A3
:10277000F205CC2309F48DC0C23009F0A2C08091CB
:10278000B100887F83608093B10089EF8093B300AC
:1027900088EC90E0A0E0B0E080937D0290937E0210
:1027A000A0937F02B093800280917000826080933A
:1027B0007000CCCF86E080930001E8E7F5E0C4919B
:1027C000CF3F09F4C3CFC13021F150F0C23009F43A
:1027D0003EC0C7FDBBCF61E086E00E94F205CCCFD2
:1027E00014BC15BC84B5826084BD85B5816085BD8F
:1027F000EFE4FAE0E491F0E0EE0FFF1FEB5CF54F41
:1028000085919491E3E6FAE0E491E093C101C0E0A0
:10281000ACCF10928000109281008091810088607E
:102820008093810080918100816080938100EFE43A
:10283000FAE0E491F0E0EE0FFF1FEB5CF54F8591BD
:102840009491E3E6FAE0E491E093C0018ECF109218
:10285000B0001092B1008091B00082608093B0000F
:102860008091B10081608093B100EFE4FAE0E491DF
:10287000F0E0EE0FFF1FEB5CF54F85919491909384
:102880007B0280937A02E3E6FAE0E491E0937C0233
:102890006CCF85B5887F836085BD8CE787BD88EC6C
:1028A00090E0A0E0B0E08093C6019093C701A093B0
:1028B000C801B093C90180916E00826080936E0060
:1028C00045CFC130F1F480918100887F8160809391
:1028D00081008FE39FE1909389008093880088ECCA
:1028E00090E0A0E0B0E08093C2019093C301A09378
:1028F000C401B093C50180916F00826080936F0026
:1029000025CFC23021F0C11121CF8FE3C7CF8FE394
:102910003DCFFC0101900020E9F73197AF01481B42
:10292000590BBC0185EA92E00C94A8060C9489141A
:10293000CF93DF930E948914EC0187E591E00E9418
:1029400089148C0F9D1FDF91CF9108958F929F92D4
:10295000AF92BF92CF92DF92EF92FF920F931F93AD
:10296000CF93DF93CDB7DEB7A1970FB6F894DEBF54
:102970000FBECDBF6C01990FEE08FF08F7FE47C0F0
:102980006DE285EA92E00E94710B8C0122273327C9
:10299000A9012C193D094E095F0919A2CE018196A2
:1029A0007C019AE0892E912CA12CB12CCA01B9018D
:1029B000A50194010E94A21C605DF70162937F0152
:1029C000211531054105510589F790E080E03097E8
:1029D00019F0CF010E948914080F191F87E591E0B3
:1029E0000E948914800F911FA1960FB6F894DEBF44
:1029F0000FBECDBFDF91CF911F910F91FF90EF9050
:102A0000DF90CF90BF90AF909F908F900895A701D7
:102A1000960119A28E010F5D1F4F8AE0C82ED12C9E
:102A2000E12CF12CCA01B901A70196010E94A21C58
:102A3000605DF80162938F01211531054105510553
:102A400089F7309729F0CF010E9489148C01C6CFF5
:102A500010E000E0C3CF2091AB023091AC02C9017D
:102A6000079697FD079623E0959587952A95E1F7B8
:102A70002091A9023091AA02829FA001839F500D4C
:102A8000929F500D112470E060E08091C4029091FB
:102A9000C5020C94081E0E94031E85ED8093BC00A5
:102AA00080910B0290910C02A0910D02B0910E0248
:102AB0000796A11DB11D23E0B695A795979587951B
:102AC0002A95D1F72091BC0024FD03C01092540236
:102AD000089540910B0250910C0260910D0270918B
:102AE0000E02452B462B472B69F30097A105B10534
:102AF00041F02AE22A95F1F700C00197A109B10936
:102B0000E1CF80910A020C94710F1F920F920FB6C1
:102B10000F9211242F933F938F939F93AF93BF9363
:102B200080918D0290918E02A0918F02B0919002BF
:102B300030918C0223E0230F2D3758F50196A11D0B
:102B4000B11D20938C0280938D0290938E02A093EE
:102B50008F02B09390028091910290919202A09185
:102B60009302B09194020196A11DB11D8093910230
:102B700090939202A0939302B0939402BF91AF916D
:102B80009F918F913F912F910F900FBE0F901F90AB
:102B9000189526E8230F0296A11DB11DD2CF1F92D2
:102BA0000F920FB60F9211242F933F934F935F9381
:102BB0006F937F938F939F93AF93BF93EF93FF9305
:102BC00080917D0290917E02A0917F02B09180025F
:102BD000892B8A2B8B2BD1F190917C02E0917A0288
:102BE000F0917B0280818927808380917D02909182
:102BF0007E02A0917F02B0918002181619061A0673
:102C00001B069CF480917D0290917E02A0917F0230
:102C1000B09180020197A109B10980937D02909340
:102C20007E02A0937F02B0938002FF91EF91BF914B
:102C3000AF919F918F917F916F915F914F913F9154
:102C40002F910F900FBE0F901F901895809100014B
:102C50000E947C06EACF1F920F920FB60F921124AA
:102C60002F933F934F935F936F937F938F939F9394
:102C7000AF93BF93EF93FF938091B900887F803625
:102C800009F44AC0F0F5883209F4A7C018F580317C
:102C900009F49BC0B8F4882309F4F9C0883009F41A
:102CA00094C0FF91EF91BF91AF919F918F917F91D0
:102CB0006F915F914F913F912F910F900FBE0F90A9
:102CC0001F901895883109F488C0803251F780939D
:102CD000530214C0803409F49DC040F48033B9F32A
:102CE0008833F9F68093530285ECB0C0803509F43F
:102CF00085C0883509F496C0883499F60E944D1530
:102D0000D0CF883909F48CC038F5883729F050F4D1
:102D1000883611F0803729F683E0809354021092B0
:102D2000520257C0883809F47BC0803919F08038C6
:102D300009F0B7CF80915202803208F071C0E09163
:102D4000520281E08E0F809352028091BB00F0E02E
:102D5000EE5CFD4F80833DC0803B39F0E0F4803A6B
:102D600009F479C0883A09F09CCF84E0809354023A
:102D70001092310210923002E0918402F0918502AB
:102D800009958091300281110FC081E0809330025B
:102D90001092100209C0803C09F4A6CF883C09F4C7
:102DA000A3CF883B09F07DCFE091310281E08E0F07
:102DB00080933102F0E0E05FFD4F80818093BB00A3
:102DC000909131028091300229C0809179028093E4
:102DD000BB0085EC8093BC0064CF90917802809119
:102DE0007702981758F5E091780281E08E0F809372
:102DF0007802F0E0E95AFD4F8081E9CFE091780256
:102E000081E08E0F809378028091BB00F0E0E95A58
:102E1000FD4F808390917802809177029817C8F2D5
:102E200085E8D8CFE091780281E08E0F8093780218
:102E30008091BB00F0E0E95AFD4F808380915602FB
:102E400081115CCF81E08093550284EA8093BC00BD
:102E50001092540226CF85EC8093BC00109254024D
:102E600080915202803230F4E0915202F0E0EE5C48
:102E7000FD4F10826091520270E0E0918202F09169
:102E8000830282E392E00995109252020ACF1092D7
:102E9000530234CFA9E9B2E013961C921E92129706
:102EA00048EE53E060E070E014964D935D936D93AF
:102EB0007C9317978DE191E011969C938E93E5EAB0
:102EC000F2E01382128220E830E03583248380E42C
:102ED00090E0978386833187208793878287168A3D
:102EE000158614861786168681E0858B848B2FEFD6
:102EF0003FEF338B228B318B208B878B108E128E82
:102F0000118E8FE291E091838083148E138EB68FA1
:102F1000A58F10A2178E8FEF84A385A386A387A306
:102F200080A780E89AE1A6E0B0E085AB96ABA7ABBE
:102F3000B0AF80EA96E8A1E0B0E081AF92AFA3AF76
:102F4000B4AF80E586AF17AE0895789484B58260FB
:102F500084BD84B5816084BD85B5826085BD85B53D
:102F6000816085BD80916E00816080936E001092BB
:102F70008100809181008260809381008091810036
:102F800081608093810080918000816080938000C7
:102F90008091B10084608093B1008091B000816025
:102FA0008093B00080917A00846080937A00809151
:102FB0007A00826080937A0080917A0081608093A9
:102FC0007A0080917A00806880937A001092C10024
:102FD00062E089E00E94F20562E088E00E94F2056A
:102FE00062E087E00E94F20561E086E00E94F2055F
:102FF0008091C4029091C502892B11F10E942B157A
:103000002091AB023091AC028091A9029091AA026A
:10301000213231050CF0E1C0B9016052710977FF2E
:1030200002C06F5F7F4F759567958357910997FD34
:10303000019600E210E023E730E04BE855E0E0C005
:103040002091AB023091AC02C901079697FD07961B
:10305000B3E095958795BA95E1F72091A902309153
:10306000AA02AC01429FC001439F900D529F900D58
:1030700011240E94DE1C9093C5028093C402892B08
:1030800009F0BCCF0E94151260ED77E080E090E07F
:103090000E9448060E942B1581E08093B90280931C
:1030A000BA0281E090E09093B8028093B7029093C7
:1030B000B6028093B50286E0E82EF12CBB24B394CF
:1030C00000E010E0C4E6D0E00E942B1589E00E94E9
:1030D0009B05892BB9F40E949F1380918B02882352
:1030E00061F08091890290918A020196B7010E9455
:1030F0008E1C90938A028093890289E00E949B052E
:10310000892BD9F388E00E949B05892BC9F4D090C4
:1031100088020E949F138091890290918A028230D6
:10312000910509F48FC20CF04EC2009709F458C201
:10313000019709F46EC288E00E949B05892BD9F3A0
:1031400087E00E949B05892B71F4D09088020E9431
:103150009F13DD2009F4C1C21092880287E00E940B
:103160009B05892BD9F380918802811183C38091BB
:103170008B02882309F4DAC28090890290908A0237
:103180001092B2021092B1021092B4021092B302E5
:103190000E942B15D12CC12C8C149D0421F48AE59E
:1031A00091E00E94961483E691E053E0C516D104A5
:1031B00009F4A5C20CF097C28EE591E041E0C41677
:1031C000D10409F49CC280E691E052E0C516D10416
:1031D00009F495C28CE591E092C2B901605471097D
:1031E00077FF02C06F5F7F4F759567958255910994
:1031F00097FD019600E410E022E530E04BE657E051
:10320000959587950E941D0E82E08093C70280915C
:10321000C2029091C302892B09F4DFC08CE3809332
:10322000C6021092870210928602109296021092A5
:1032300095020E94530F8AE796E09093850280934F
:1032400084028BE796E090938302809382028091C0
:10325000CD0287FD1EC061E00E94F20561E0809111
:10326000CD020E94C40561E070E080E090E00E9421
:10327000480660E08091CD020E94C4056AE070E0DB
:1032800080E090E00E94480661E08091CD020E94BB
:10329000C4058091C2029091C302892B09F45CC1DC
:1032A0002091DA023091DB024091DC025091DD0284
:1032B00060E074E284EF90E00E94A21C205131098A
:1032C0004109510956954795379527952093B800A0
:1032D00064E087E895E00E94FE106091AB026150C7
:1032E00085EA92E00E94B31164E083E895E00E94D1
:1032F000FE108091C70260E1813009F064E185EA47
:1033000092E00E94B31164E08FE795E00E94FE1006
:103310008FE88093E2028091A9029091AA028038FE
:10332000910509F032C18091AB029091AC028034DA
:10333000910509F03AC18091C702813009F023C19B
:103340008FE98093E202C2E16AED85EA92E00E9491
:10335000B3116C2F85EA92E00E94B31161E885EA0F
:1033600092E00E94B3116091E20285EA92E00E942D
:10337000B31169ED85EA92E00E94B3118091C70212
:1033800062E2813009F061EF85EA92E00E94B311B8
:1033900066E089E795E00E94FE108091C20290915C
:1033A000C302892B09F405C12091DE023091DF02AE
:1033B0004091E0025091E10260E074E284EF90E01D
:1033C0000E94A21C20513109410951095695479587
:1033D000379527952093B80055CE61E08091CB02B8
:1033E0000E94F20561E08091CC020E94F20580917A
:1033F000CB02082E000C990BFC01E75BF54FE49122
:10340000F0E0EE0FFF1FEB5CF54F25913491309308
:10341000D3022093D202FC01E35AF54FE491E093EA
:10342000D8028091CC02082E000C990BFC01E75BBE
:10343000F54FE491F0E0EE0FFF1FEB5CF54FA59127
:10344000B491B093D502A093D402FC01E35AF54F96
:10345000E491E093D9028C91E82BEC938091C00227
:103460009091C102892B09F434C0CFB7F8948091B0
:103470008102811127C0E3E5FAE08491E7E6FAE0F2
:103480009491E82FF0E0EE0FFF1FE55DF54FA59159
:10349000B491EC91E92321F461E08AE00E94C40533
:1034A00061E08AE00E94F2058CB580618CBD8CB52C
:1034B00080648CBD61E08DE00E94F20561E08BE0EC
:1034C0000E94F205809181028F5F80938102CFBFBD
:1034D000BECE61E08091C9020E94F20561E0809158
:1034E000CA020E94F2058091C902082E000C990BB5
:1034F000FC01E75BF54FE491F0E0EE0FFF1FEB5CA2
:10350000F54F259134913093CF022093CE02FC01E8
:10351000E35AF54FE491E093D6028091CA02082E57
:10352000000C990BFC01E75BF54FE491F0E0EE0F26
:10353000FF1FEB5CF54FA591B491B093D102A0931E
:10354000D002FC01E35AF54FE491E093D7028C914D
:10355000E095E823EC937BCE8091C0029091C1026C
:10356000892B31F08091E3029091E4020E943309AB
:10357000E091D402F091D50290818091D90280959A
:1035800089238083A5CE8FECDCCE8036910569F44B
:103590008091AB029091AC02409739F48091C702C0
:1035A000813029F480E18093E202C2E0CDCE8FEA3F
:1035B000FACFE091D402F091D50280819091D902A6
:1035C000892B80835FCD8430910509F46DC00CF4A4
:1035D00052C0059709F0AFCDDB24D0928802ABCD65
:1035E00080911101909112010A97853691052CF076
:1035F000D0931201C09311019ECD97FD05C0909309
:1036000012018093110197CD1092120110921101B5
:1036100092CD80910F01909110010A968536910507
:103620002CF0D0931001C0930F0185CD97FD05C0FC
:103630009093100180930F017ECD10921001109293
:103640000F0179CD80910D0190910E010A9685367A
:1036500091052CF0D0930E01C0930D016CCD97FD18
:1036600005C090930E0180930D0165CD10920E015F
:1036700010920D0160CD80910B0190910C010A9682
:10368000853691052CF0D0930C01C0930B0153CDDE
:1036900097FD05C090930C0180930B014CCD1092C7
:1036A0000C0110920B0147CD8091090190910A0104
:1036B0000A96853691052CF0D0930A01C093090132
:1036C0003ACD97FD05C090930A018093090133CD4F
:1036D00010920A01109209012ECD80918B028B2548
:1036E00080938B023BCD84E0C816D10409F463C0FB
:1036F00087E691E045E0C416D10409F06BCD0E9445
:10370000961489E691E08C149D0411F087E891E00D
:103710000E9496145FEFC51AD50A86E0C816D10438
:1037200009F03ACD87E591E00E9489148091050166
:10373000909106014091070150910801480F591FCF
:10374000C090AD02D090AE029601205431091416FB
:1037500015061CF4421753073CF091958195910989
:103760009093060180930501E0910101F09102011F
:1037700060910301709104016E0F7F1FA091AF0251
:10378000B091B002CD018097613171051CF06817CE
:1037900079073CF0F195E195F109F0930201E0938E
:1037A00001014217530754F040E4C416D1044CF40D
:1037B00030E020E006C085E691E0A1CF9A0157FDF8
:1037C000F7CF3093080120930701681779072CF091
:1037D000D0973CF480E190E004C0CB0160317105EA
:1037E000CCF390930401809303013093B2022093B1
:1037F000B1029093B4028093B3028CE691E00E94F0
:10380000981480910301909104010A962091070178
:10381000309108013093B2022093B1029093B40228
:103820008093B30286E791E00E949814809103018F
:103830009091040144962091070130910801309342
:10384000B2022093B1029093B4028093B30280E855
:1038500091E00E9498140E94151264E670E080E0E6
:1038600090E00E9448060115110509F42DCC0E9434
:1038700000002ACC0E942B151092B2021092B102C5
:103880001092B4021092B3028AE891E00E94981458
:1038900089E591E00E94981481E991E00E949614D4
:1038A00080911101909112010E94A6148AE991E081
:1038B0000E94961480910F01909110010E94A6140D
:1038C00082EA91E00E94961480910D0190910E0180
:1038D0000E94A6148BEA91E00E94961480910B013D
:1038E00090910C010E94A61483EB91E00E94961423
:1038F0008091090190910A010E94A614ACCF8FE239
:1039000091E09093A6028093A5028091C4029091C9
:10391000C502009711F00C947A1D089597FB072EAD
:1039200016F4009407D077FD09D00E94C41C07FC50
:1039300005D03EF4909581959F4F089570956195BF
:103940007F4F0895A1E21A2EAA1BBB1BFD010DC0DB
:10395000AA1FBB1FEE1FFF1FA217B307E407F5073F
:1039600020F0A21BB30BE40BF50B661F771F881F1B
:10397000991F1A9469F760957095809590959B01B1
:10398000AC01BD01CF010895AA1BBB1B51E107C0CB
:10399000AA1FBB1FA617B70710F0A61BB70B881FDF
:1039A000991F5A95A9F780959095BC01CD0108956E
:1039B000EE0FFF1F0590F491E02D09940F931F93D4
:1039C000CF93DF938230910510F482E090E0E09194
:1039D000E702F091E80230E020E0B0E0A0E03097AC
:1039E00099F42115310509F44AC0281B390B2430FC
:1039F0003105D8F58A819B816115710589F1FB013B
:103A000093838283FE0111C0408151810281138121
:103A100048175907E0F04817590799F4109761F0D3
:103A200012960C93129713961C933296CF01DF9146
:103A3000CF911F910F9108950093E7021093E80230
:103A4000F4CF2115310551F04217530738F0A90181
:103A5000DB019A01BD01DF01F801C1CFEF01F9CF10
:103A60009093E8028093E702CDCFFE01E20FF31FAF
:103A7000819391932250310939832883D7CF2091A4
:103A8000E5023091E602232B41F42091150130919B
:103A900016013093E6022093E50220911301309144
:103AA00014012115310541F42DB73EB7409117019E
:103AB00050911801241B350BE091E502F091E602CC
:103AC000E217F307A0F42E1B3F0B2817390778F0F5
:103AD000AC014E5F5F4F2417350748F04E0F5F1F54
:103AE0005093E6024093E502819391939FCFF0E0DB
:103AF000E0E09CCFCF93DF930097E9F0FC01329791
:103B000013821282A091E702B091E802ED0130E049
:103B100020E01097A1F420813181820F931F209122
:103B2000E5023091E6022817390709F061C0F093E9
:103B3000E602E093E502DF91CF910895EA01CE1706
:103B4000DF07E8F54A815B819E0141155105B1F718
:103B5000E901FB83EA8349915991C40FD51FEC1702
:103B6000FD0761F4808191810296840F951FE90120
:103B700099838883828193819B838A83F0E0E0E04C
:103B800012968D919C9113970097B9F52D913C91C8
:103B90001197CD010296820F931F2091E50230917B
:103BA000E6022817390739F6309751F51092E802E6
:103BB0001092E702B093E602A093E502BCCFD38354
:103BC000C28340815181840F951FC817D90761F4C2
:103BD0004E5F5F4F88819981480F591F5183408301
:103BE0008A819B81938382832115310509F0B0CFAF
:103BF000F093E802E093E7029ECFFD01DC01C0CF25
:103C000013821282D7CF81E090E0F8940C940F1EBB
:103C1000DC0101C06D9341505040E0F7089515E07C
:103C2000C6E4D5E004C0FE010E94D81C2196C7342A
:083C3000D107C9F7F894FFCF9A
:103C3800FF010020000100400064006400640032BD
:103C48000032000000E902800000000000E80FBB1D
:103C58000F9C137105B40FA10F920F0000000071A3
:103C68000BA8069C132B0F7C087105160EEE0D0A87
:103C78000EFE0D7E0E710537094613EC0735083721
:103C88000D1A0DA20C430C0D0A007C0046004800DA
:103C9800487000530044005A007C200020202F5C0C
:103CA8005F2F5C2020002028206F2E6F2029200005
:103CB80020203E205E203C20200053746174733A1B
:103CC8000048756E6765723A200048617070793AED
:103CD80020004865616C74683A2000536C65657013
:103CE8003A20004469736369706C696E653A200014
:00000001FF
